{
    "contractName": "AddressLister",
    "abi": [
        {
            "anonymous": false,
            "inputs": [
                {
                    "indexed": true,
                    "internalType": "address",
                    "name": "userAddress_Rec",
                    "type": "address"
                }
            ],
            "name": "AddressRecorded",
            "type": "event"
        },
        {
            "inputs": [],
            "name": "addAddress",
            "outputs": [],
            "stateMutability": "nonpayable",
            "type": "function"
        },
        {
            "inputs": [
                {
                    "internalType": "uint256",
                    "name": "",
                    "type": "uint256"
                }
            ],
            "name": "addressList",
            "outputs": [
                {
                    "internalType": "address",
                    "name": "",
                    "type": "address"
                }
            ],
            "stateMutability": "view",
            "type": "function"
        },
        {
            "inputs": [],
            "name": "getAddressCount",
            "outputs": [
                {
                    "internalType": "uint256",
                    "name": "",
                    "type": "uint256"
                }
            ],
            "stateMutability": "view",
            "type": "function"
        },
        {
            "inputs": [],
            "name": "getAddresses",
            "outputs": [
                {
                    "internalType": "address[]",
                    "name": "",
                    "type": "address[]"
                }
            ],
            "stateMutability": "view",
            "type": "function"
        }
    ],
    "bytecode": "608060405234156100105760006000fd5b61042780610021600039806000f350fe608060405260043610151561011e576000803560e01c630ee9695381146100465763a39fac1281146100735763b810fb4381146100af5763cdbb02af81146100ea5761011b565b3415610050578182fd5b61005b366004610128565b6100636102c4565b8161006d836101de565bf361011b565b341561007d578182fd5b610088366004610128565b6100918261026a565b61009a836101de565b806100a58383610175565b0381f3505061011b565b34156100b9578182fd5b6100cc6100c736600461013e565b6103a2565b6100d5836101de565b806100e0838361015a565b0381f3505061011b565b34156100f4578182fd5b6100ff366004610128565b815461010a836101de565b8061011583836101cc565b0381f350505b50505b60006000fd610426565b600081830312156101395760006000fd5b5b5050565b60006020828403121561014f578081fd5b813590505b92915050565b60006020820190506001600160a01b03831682525b92915050565b600060208083018184528085518083526040860191508387019250845b818110156101bd576001600160a01b038451168352848301925084840193505b600181019050610192565b50508093505050505b92915050565b60006020820190508282525b92915050565b6000604051905081810181811067ffffffffffffffff82111715610205576102046103d6565b5b80604052505b919050565b8054680100000000000000008110151561022d5761022c6103d6565b5b60018101825561023d81836103ee565b915080546008830292506001600160a01b0380841b80828816861b168119841617845550505050505b5050565b6000604051905080825480835260208084019250846000528060002060005b838110156102b5576001600160a01b03825416855282850194506001820191505b600181019050610289565b5050505080604052505b919050565b600080545b8082101561036a576102dc8260006103ee565b81549150336001600160a01b0383600884021c16141561033c5760405162461bcd60e51b815260206004820152601660248201527f4164647265737320616c72656164792061646465642e000000000000000000006044820152606481fd505b50505b60001982141561035f57634e487b7160e01b600052601160045260246000fd5b6001820191506102c9565b5050610377336000610210565b337f2fe816e073aa1a8f04afaf4244e141ddbe271a477ca7324a825b3be6fccbd74a6000604051a25b565b60008054821015156103b2578081fd5b6103bc82826103ee565b6001600160a01b038254600883021c16925050505b919050565b634e487b7160e01b600052604160045260246000fd5b565b6000600082548410151561041057634e487b7160e01b82526032600452602482fd5b82825283602083200191508090505b9250929050565b",
    "deployedBytecode": "",
    "sourcePath": "c:/Users/ASUS/demo/ABAC/AddressListAttribute.sol",
    "compiler": {
        "name": "solc",
        "version": "0.8.0+commit.c7dfd78e"
    },
    "functionHashes": {
        "addAddress()": "0ee96953",
        "addressList(uint256)": "b810fb43",
        "getAddressCount()": "cdbb02af",
        "getAddresses()": "a39fac12"
    },
    "gasEstimates": null
}